S0130000756172742074696E7931332E737265630D
S113000009C075C015C014C013C012C012C03FC0CF
S11300100FC00EC011241FBECFE9CDBF20E0A0E663
S1130020B0E001C01D92A536B207E1F7BFD0F1C020
S1130030E7CF1F920F920FB60F9211242F938F9335
S11300409F9328B38091630090916400922F9E7FC8
S11300508170892B88BB8091630090916400969590
S11300608795905890936400809363008091610019
S1130070882329F0809161008150809361009F91D1
S11300808F912F910F900FBE0F901F9018951F9274
S11300900F920FB60F9211248F939F93B19B05C0BB
S11300A0809162008068809362008091600081503A
S11300B08093600081110DC089B7877F89BF88B79D
S11300C0886088BF8AB780648ABF8BB780648BBF1F
S11300D007C08091620090E09595879580936200B7
S11300E09F918F910F900FBE0F901F9018951F92A4
S11300F00F920FB60F9211248F9389E080936000C2
S11301001092620082B7843020F482B78C5F89BD7C
S113011003C082B7845089BD8BB78F7B8BBF88B7F0
S11301208C6088BF89B7886089BF8F910F900FBE9C
S11301300F901F901895909161009111FCCF90E061
S11301409A95880F991F90936400809363008AE0C6
S11301508093610008958FEF9FEF909364008093E4
S11301606300109262001092610099E09093600025
S113017087B3816087BB87B38D7F87BB88B381607A
S113018088BB86B3826086BB96BF89B7846089BF0B
S11301908FB582608FBD83B7826083BF85B782606D
S11301A085BF8BB780648BBF789408958EED81BF33
S11301B0D2DF8AE5C0DF85EABEDF80E0BCDF80E213
S11301C0BADF82E2B8DF8AE5B6DF80E0B4DF83E637
S11301D0B2DF8FEFB0DF8AE5AEDF85EAACDF81E026
S11301E0AADF80E2A8DF82E2A6DF81E0A4DF80E369
S11301F0A2DF8CE0A0DF8FE79EDF8FEF9CDF2FEF85
S113020086E791E0215080409040E1F700C0000073
S1090210D0CFF894FFCFEB
S9030000FC
